:040000008A11D12F61
:100F7C008A1100287E088A007F0882008A11C02707
:100F8C008A118000840A04087D0603190034FF0AC4
:100F9C000319FE0AC42FC101C201C30183133D30E2
:100FAC00FD000730FE00E330FF00203084008A1182
:100FBC00C4278A1183018A11BE2F50346F347234C6
:100FCC0020346634613476346F34723420346434B3
:100FDC0069346734693474346534203475346E3450
:100FEC00613420347434653463346C3461343A3491
:040FFC002034003469
:08400000FF3FFF3FFF3FFF3FC0
:02400E0039FD7A
:00000001FF
